{
  "contractName": "AgritechDemo",
  "abi": [
    {
      "inputs": [],
      "stateMutability": "nonpayable",
      "type": "constructor"
    },
    {
      "anonymous": false,
      "inputs": [
        {
          "indexed": false,
          "internalType": "address",
          "name": "deployer",
          "type": "address"
        }
      ],
      "name": "ContractDeployed",
      "type": "event"
    },
    {
      "anonymous": false,
      "inputs": [
        {
          "indexed": false,
          "internalType": "AgritechDemo.timestamp",
          "name": "registrationTime",
          "type": "uint256"
        },
        {
          "indexed": true,
          "internalType": "bytes14",
          "name": "cowId",
          "type": "bytes14"
        },
        {
          "indexed": false,
          "internalType": "address",
          "name": "deviceAddress",
          "type": "address"
        }
      ],
      "name": "CowToDeviceAssociated",
      "type": "event"
    },
    {
      "anonymous": false,
      "inputs": [
        {
          "indexed": false,
          "internalType": "AgritechDemo.timestamp",
          "name": "registrationTime",
          "type": "uint256"
        },
        {
          "indexed": true,
          "internalType": "bytes14",
          "name": "cowId",
          "type": "bytes14"
        },
        {
          "indexed": false,
          "internalType": "address",
          "name": "deviceAddress",
          "type": "address"
        }
      ],
      "name": "CowToDeviceDissociated",
      "type": "event"
    },
    {
      "anonymous": false,
      "inputs": [
        {
          "indexed": false,
          "internalType": "AgritechDemo.timestamp",
          "name": "registerTime",
          "type": "uint256"
        },
        {
          "indexed": false,
          "internalType": "address",
          "name": "deviceAddress",
          "type": "address"
        },
        {
          "indexed": false,
          "internalType": "address",
          "name": "deviceManager",
          "type": "address"
        }
      ],
      "name": "DeviceRegistered",
      "type": "event"
    },
    {
      "anonymous": false,
      "inputs": [
        {
          "indexed": false,
          "internalType": "AgritechDemo.timestamp",
          "name": "lastTimestamp",
          "type": "uint256"
        },
        {
          "indexed": true,
          "internalType": "bytes14",
          "name": "cowId",
          "type": "bytes14"
        },
        {
          "indexed": false,
          "internalType": "bytes32",
          "name": "hash",
          "type": "bytes32"
        }
      ],
      "name": "IntegritySegment",
      "type": "event"
    },
    {
      "anonymous": false,
      "inputs": [
        {
          "indexed": true,
          "internalType": "address",
          "name": "previousOwner",
          "type": "address"
        },
        {
          "indexed": true,
          "internalType": "address",
          "name": "newOwner",
          "type": "address"
        },
        {
          "indexed": false,
          "internalType": "bytes14",
          "name": "cowId",
          "type": "bytes14"
        }
      ],
      "name": "OwnershipTransferCanceled",
      "type": "event"
    },
    {
      "anonymous": false,
      "inputs": [
        {
          "indexed": true,
          "internalType": "address",
          "name": "previousOwner",
          "type": "address"
        },
        {
          "indexed": true,
          "internalType": "address",
          "name": "newOwner",
          "type": "address"
        },
        {
          "indexed": false,
          "internalType": "bytes14",
          "name": "cowId",
          "type": "bytes14"
        }
      ],
      "name": "OwnershipTransferCompleted",
      "type": "event"
    },
    {
      "anonymous": false,
      "inputs": [
        {
          "indexed": true,
          "internalType": "address",
          "name": "currentOwner",
          "type": "address"
        },
        {
          "indexed": true,
          "internalType": "address",
          "name": "proposedOwner",
          "type": "address"
        },
        {
          "indexed": false,
          "internalType": "bytes14",
          "name": "cowId",
          "type": "bytes14"
        }
      ],
      "name": "OwnershipTransferInitiated",
      "type": "event"
    },
    {
      "inputs": [
        {
          "internalType": "address",
          "name": "",
          "type": "address"
        }
      ],
      "name": "addrToRole",
      "outputs": [
        {
          "internalType": "enum AgritechDemo.Roles",
          "name": "",
          "type": "uint8"
        }
      ],
      "stateMutability": "view",
      "type": "function",
      "constant": true
    },
    {
      "inputs": [
        {
          "internalType": "bytes14",
          "name": "",
          "type": "bytes14"
        },
        {
          "internalType": "uint256",
          "name": "",
          "type": "uint256"
        }
      ],
      "name": "cowOwnerships",
      "outputs": [
        {
          "internalType": "AgritechDemo.timestamp",
          "name": "startTime",
          "type": "uint256"
        },
        {
          "internalType": "address",
          "name": "owner",
          "type": "address"
        }
      ],
      "stateMutability": "view",
      "type": "function",
      "constant": true
    },
    {
      "inputs": [
        {
          "internalType": "address",
          "name": "",
          "type": "address"
        }
      ],
      "name": "deviceAssociations",
      "outputs": [
        {
          "internalType": "address",
          "name": "currentManager",
          "type": "address"
        },
        {
          "internalType": "bytes14",
          "name": "currentCow",
          "type": "bytes14"
        }
      ],
      "stateMutability": "view",
      "type": "function",
      "constant": true
    },
    {
      "inputs": [
        {
          "internalType": "bytes14",
          "name": "",
          "type": "bytes14"
        }
      ],
      "name": "hasCowAssociatedDevice",
      "outputs": [
        {
          "internalType": "bool",
          "name": "",
          "type": "bool"
        }
      ],
      "stateMutability": "view",
      "type": "function",
      "constant": true
    },
    {
      "inputs": [
        {
          "internalType": "bytes14",
          "name": "",
          "type": "bytes14"
        }
      ],
      "name": "pendingOwnerships",
      "outputs": [
        {
          "internalType": "AgritechDemo.timestamp",
          "name": "transferTime",
          "type": "uint256"
        },
        {
          "internalType": "address",
          "name": "previousOwner",
          "type": "address"
        },
        {
          "internalType": "address",
          "name": "newOwner",
          "type": "address"
        }
      ],
      "stateMutability": "view",
      "type": "function",
      "constant": true
    },
    {
      "inputs": [
        {
          "internalType": "address",
          "name": "_adminAddress",
          "type": "address"
        }
      ],
      "name": "registerNewAdmin",
      "outputs": [],
      "stateMutability": "nonpayable",
      "type": "function"
    },
    {
      "inputs": [
        {
          "internalType": "address",
          "name": "_actorAddress",
          "type": "address"
        }
      ],
      "name": "registerNewActor",
      "outputs": [],
      "stateMutability": "nonpayable",
      "type": "function"
    },
    {
      "inputs": [
        {
          "internalType": "address",
          "name": "_deviceAddress",
          "type": "address"
        },
        {
          "internalType": "address",
          "name": "_managerAddress",
          "type": "address"
        },
        {
          "internalType": "AgritechDemo.timestamp",
          "name": "_registerTime",
          "type": "uint256"
        }
      ],
      "name": "registerNewDevice",
      "outputs": [],
      "stateMutability": "nonpayable",
      "type": "function"
    },
    {
      "inputs": [
        {
          "internalType": "string",
          "name": "_cowId",
          "type": "string"
        },
        {
          "internalType": "AgritechDemo.timestamp",
          "name": "_registrationTime",
          "type": "uint256"
        }
      ],
      "name": "addCow",
      "outputs": [],
      "stateMutability": "nonpayable",
      "type": "function"
    },
    {
      "inputs": [
        {
          "internalType": "string",
          "name": "_cowId",
          "type": "string"
        },
        {
          "internalType": "address",
          "name": "_deviceAddress",
          "type": "address"
        },
        {
          "internalType": "AgritechDemo.timestamp",
          "name": "_startTime",
          "type": "uint256"
        }
      ],
      "name": "associateDeviceToCow",
      "outputs": [],
      "stateMutability": "nonpayable",
      "type": "function"
    },
    {
      "inputs": [
        {
          "internalType": "string",
          "name": "_cowId",
          "type": "string"
        },
        {
          "internalType": "address",
          "name": "_deviceAddress",
          "type": "address"
        },
        {
          "internalType": "AgritechDemo.timestamp",
          "name": "_endTime",
          "type": "uint256"
        }
      ],
      "name": "dissociateDeviceToCow",
      "outputs": [],
      "stateMutability": "nonpayable",
      "type": "function"
    },
    {
      "inputs": [
        {
          "internalType": "string",
          "name": "_cowId",
          "type": "string"
        },
        {
          "internalType": "address",
          "name": "_newOwner",
          "type": "address"
        },
        {
          "internalType": "AgritechDemo.timestamp",
          "name": "_transferTime",
          "type": "uint256"
        }
      ],
      "name": "transferOwnership",
      "outputs": [],
      "stateMutability": "nonpayable",
      "type": "function"
    },
    {
      "inputs": [
        {
          "internalType": "string",
          "name": "_cowId",
          "type": "string"
        }
      ],
      "name": "acceptOwnership",
      "outputs": [],
      "stateMutability": "nonpayable",
      "type": "function"
    },
    {
      "inputs": [
        {
          "internalType": "string",
          "name": "_cowId",
          "type": "string"
        }
      ],
      "name": "cancelTransfer",
      "outputs": [],
      "stateMutability": "nonpayable",
      "type": "function"
    },
    {
      "inputs": [
        {
          "internalType": "string",
          "name": "_cowId",
          "type": "string"
        },
        {
          "internalType": "AgritechDemo.timestamp",
          "name": "_updateTime",
          "type": "uint256"
        },
        {
          "internalType": "bytes32",
          "name": "gpshash",
          "type": "bytes32"
        }
      ],
      "name": "storeIntegritySegment",
      "outputs": [],
      "stateMutability": "nonpayable",
      "type": "function"
    }
  ],
  "bytecode": "0x60806040523480156200001157600080fd5b5060016000803373ffffffffffffffffffffffffffffffffffffffff1673ffffffffffffffffffffffffffffffffffffffff16815260200190815260200160002060006101000a81548160ff0219169083600381111562000077576200007662000082565b5b0217905550620000b1565b7f4e487b7100000000000000000000000000000000000000000000000000000000600052602160045260246000fd5b6134d480620000c16000396000f3fe608060405234801561001057600080fd5b50600436106100f55760003560e01c806371d71ddf11610097578063b0aefc8411610066578063b0aefc841461026c578063bc316c4114610288578063c0460a6d146102b9578063ff83f562146102ea576100f5565b806371d71ddf146101e857806389b43e0e14610218578063936159ac14610234578063a24aadf414610250576100f5565b80632b0ab64d116100d35780632b0ab64d146101625780634e7d84601461017e57806355c829221461019a57806357b3130f146101b6576100f5565b80631b30eac5146100fa578063272041031461012a578063296a857b14610146575b600080fd5b610114600480360381019061010f91906123d7565b610306565b604051610121919061247b565b60405180910390f35b610144600480360381019061013f91906124cc565b610326565b005b610160600480360381019061015b9190612584565b61062e565b005b61017c600480360381019061017791906123d7565b610827565b005b610198600480360381019061019391906125e4565b6109f7565b005b6101b460048036038101906101af919061268e565b610d8d565b005b6101d060048036038101906101cb919061275a565b610eac565b6040516101df939291906127d1565b60405180910390f35b61020260048036038101906101fd919061275a565b610f16565b60405161020f9190612823565b60405180910390f35b610232600480360381019061022d91906125e4565b610f36565b005b61024e600480360381019061024991906123d7565b611448565b005b61026a600480360381019061026591906125e4565b611618565b005b6102866004803603810190610281919061283e565b611bc2565b005b6102a2600480360381019061029d91906123d7565b611e49565b6040516102b092919061289a565b60405180910390f35b6102d360048036038101906102ce91906128ef565b611e9a565b6040516102e192919061292f565b60405180910390f35b61030460048036038101906102ff919061283e565b611efb565b005b60006020528060005260406000206000915054906101000a900460ff1681565b6001600381111561033a57610339612404565b5b6000803373ffffffffffffffffffffffffffffffffffffffff1673ffffffffffffffffffffffffffffffffffffffff16815260200190815260200160002060009054906101000a900460ff16600381111561039857610397612404565b5b146103d8576040517f08c379a00000000000000000000000000000000000000000000000000000000081526004016103cf906129db565b60405180910390fd5b82600060038111156103ed576103ec612404565b5b6000808373ffffffffffffffffffffffffffffffffffffffff1673ffffffffffffffffffffffffffffffffffffffff16815260200190815260200160002060009054906101000a900460ff16600381111561044b5761044a612404565b5b1461048b576040517f08c379a000000000000000000000000000000000000000000000000000000000815260040161048290612a47565b60405180910390fd5b60036000808673ffffffffffffffffffffffffffffffffffffffff1673ffffffffffffffffffffffffffffffffffffffff16815260200190815260200160002060006101000a81548160ff021916908360038111156104ed576104ec612404565b5b021790555060405180604001604052808473ffffffffffffffffffffffffffffffffffffffff168152602001600060901b71ffffffffffffffffffffffffffffffffffff1916815250600260008673ffffffffffffffffffffffffffffffffffffffff1673ffffffffffffffffffffffffffffffffffffffff16815260200190815260200160002060008201518160000160006101000a81548173ffffffffffffffffffffffffffffffffffffffff021916908373ffffffffffffffffffffffffffffffffffffffff16021790555060208201518160010160006101000a8154816dffffffffffffffffffffffffffff021916908360901c02179055509050507f2fb179bac3c9c4dd82699cf12fa366ba1bcdb88f21c8251c559435288eb81bf0828585604051610620939291906127d1565b60405180910390a150505050565b600061063a8484612270565b905061064581612312565b15610685576040517f08c379a000000000000000000000000000000000000000000000000000000000815260040161067c90612ab3565b60405180910390fd5b6002600381111561069957610698612404565b5b6000803373ffffffffffffffffffffffffffffffffffffffff1673ffffffffffffffffffffffffffffffffffffffff16815260200190815260200160002060009054906101000a900460ff1660038111156106f7576106f6612404565b5b14610737576040517f08c379a000000000000000000000000000000000000000000000000000000000815260040161072e90612b45565b60405180910390fd5b600060405180604001604052808481526020013373ffffffffffffffffffffffffffffffffffffffff168152509050600160008371ffffffffffffffffffffffffffffffffffff191671ffffffffffffffffffffffffffffffffffff191681526020019081526020016000208190806001815401808255809150506001900390600052602060002090600202016000909190919091506000820151816000015560208201518160010160006101000a81548173ffffffffffffffffffffffffffffffffffffffff021916908373ffffffffffffffffffffffffffffffffffffffff16021790555050505050505050565b6001600381111561083b5761083a612404565b5b6000803373ffffffffffffffffffffffffffffffffffffffff1673ffffffffffffffffffffffffffffffffffffffff16815260200190815260200160002060009054906101000a900460ff16600381111561089957610898612404565b5b146108d9576040517f08c379a00000000000000000000000000000000000000000000000000000000081526004016108d0906129db565b60405180910390fd5b80600060038111156108ee576108ed612404565b5b6000808373ffffffffffffffffffffffffffffffffffffffff1673ffffffffffffffffffffffffffffffffffffffff16815260200190815260200160002060009054906101000a900460ff16600381111561094c5761094b612404565b5b1461098c576040517f08c379a000000000000000000000000000000000000000000000000000000000815260040161098390612a47565b60405180910390fd5b60016000808473ffffffffffffffffffffffffffffffffffffffff1673ffffffffffffffffffffffffffffffffffffffff16815260200190815260200160002060006101000a81548160ff021916908360038111156109ee576109ed612404565b5b02179055505050565b600380811115610a0a57610a09612404565b5b6000808473ffffffffffffffffffffffffffffffffffffffff1673ffffffffffffffffffffffffffffffffffffffff16815260200190815260200160002060009054906101000a900460ff166003811115610a6857610a67612404565b5b14610aa8576040517f08c379a0000000000000000000000000000000000000000000000000000000008152600401610a9f90612bd7565b60405180910390fd5b6000600260008473ffffffffffffffffffffffffffffffffffffffff1673ffffffffffffffffffffffffffffffffffffffff1681526020019081526020016000206040518060400160405290816000820160009054906101000a900473ffffffffffffffffffffffffffffffffffffffff1673ffffffffffffffffffffffffffffffffffffffff1673ffffffffffffffffffffffffffffffffffffffff1681526020016001820160009054906101000a900460901b71ffffffffffffffffffffffffffffffffffff191671ffffffffffffffffffffffffffffffffffff19168152505090503373ffffffffffffffffffffffffffffffffffffffff16816000015173ffffffffffffffffffffffffffffffffffffffff1614610bff576040517f08c379a0000000000000000000000000000000000000000000000000000000008152600401610bf690612c69565b60405180910390fd5b6000610c0b8686612270565b90508071ffffffffffffffffffffffffffffffffffff1916826020015171ffffffffffffffffffffffffffffffffffff191614610c7d576040517f08c379a0000000000000000000000000000000000000000000000000000000008152600401610c7490612cfb565b60405180910390fd5b600060901b600260008673ffffffffffffffffffffffffffffffffffffffff1673ffffffffffffffffffffffffffffffffffffffff16815260200190815260200160002060010160006101000a8154816dffffffffffffffffffffffffffff021916908360901c0217905550600460008271ffffffffffffffffffffffffffffffffffff191671ffffffffffffffffffffffffffffffffffff1916815260200190815260200160002060006101000a81549060ff02191690558071ffffffffffffffffffffffffffffffffffff19167fb37860d398b4e21a9336c4639c61e06b3cf3e5148c8bdb108e550b04c3d83cac8486604051610d7d92919061292f565b60405180910390a2505050505050565b6000610d998585612270565b90508071ffffffffffffffffffffffffffffffffffff1916600260003373ffffffffffffffffffffffffffffffffffffffff1673ffffffffffffffffffffffffffffffffffffffff16815260200190815260200160002060010160009054906101000a900460901b71ffffffffffffffffffffffffffffffffffff191614610e56576040517f08c379a0000000000000000000000000000000000000000000000000000000008152600401610e4d90612d8d565b60405180910390fd5b8071ffffffffffffffffffffffffffffffffffff19167fd14e1890912e11bf517de00ac15cafb6f2ec2ca2db1db491f4ea478e3ba086e18484604051610e9d929190612dbc565b60405180910390a25050505050565b60036020528060005260406000206000915090508060000154908060010160009054906101000a900473ffffffffffffffffffffffffffffffffffffffff16908060020160009054906101000a900473ffffffffffffffffffffffffffffffffffffffff16905083565b60046020528060005260406000206000915054906101000a900460ff1681565b600380811115610f4957610f48612404565b5b6000808473ffffffffffffffffffffffffffffffffffffffff1673ffffffffffffffffffffffffffffffffffffffff16815260200190815260200160002060009054906101000a900460ff166003811115610fa757610fa6612404565b5b14610fe7576040517f08c379a0000000000000000000000000000000000000000000000000000000008152600401610fde90612bd7565b60405180910390fd5b6000600260008473ffffffffffffffffffffffffffffffffffffffff1673ffffffffffffffffffffffffffffffffffffffff1681526020019081526020016000206040518060400160405290816000820160009054906101000a900473ffffffffffffffffffffffffffffffffffffffff1673ffffffffffffffffffffffffffffffffffffffff1673ffffffffffffffffffffffffffffffffffffffff1681526020016001820160009054906101000a900460901b71ffffffffffffffffffffffffffffffffffff191671ffffffffffffffffffffffffffffffffffff19168152505090503373ffffffffffffffffffffffffffffffffffffffff16816000015173ffffffffffffffffffffffffffffffffffffffff161461113e576040517f08c379a000000000000000000000000000000000000000000000000000000000815260040161113590612c69565b60405180910390fd5b600060901b71ffffffffffffffffffffffffffffffffffff1916816020015171ffffffffffffffffffffffffffffffffffff1916146111b2576040517f08c379a00000000000000000000000000000000000000000000000000000000081526004016111a990612e57565b60405180910390fd5b60006111be8686612270565b9050600073ffffffffffffffffffffffffffffffffffffffff16600360008371ffffffffffffffffffffffffffffffffffff191671ffffffffffffffffffffffffffffffffffff1916815260200190815260200160002060020160009054906101000a900473ffffffffffffffffffffffffffffffffffffffff1673ffffffffffffffffffffffffffffffffffffffff161461128f576040517f08c379a000000000000000000000000000000000000000000000000000000000815260040161128690612ee9565b60405180910390fd5b600460008271ffffffffffffffffffffffffffffffffffff191671ffffffffffffffffffffffffffffffffffff1916815260200190815260200160002060009054906101000a900460ff161561131a576040517f08c379a000000000000000000000000000000000000000000000000000000000815260040161131190612f7b565b60405180910390fd5b61132381612312565b6113335761133286868561062e565b5b80600260008673ffffffffffffffffffffffffffffffffffffffff1673ffffffffffffffffffffffffffffffffffffffff16815260200190815260200160002060010160006101000a8154816dffffffffffffffffffffffffffff021916908360901c02179055506001600460008371ffffffffffffffffffffffffffffffffffff191671ffffffffffffffffffffffffffffffffffff1916815260200190815260200160002060006101000a81548160ff0219169083151502179055508071ffffffffffffffffffffffffffffffffffff19167fed398bd4bd0680e162202b9793dd5f101566a082fe165c01eefe02881e033775848660405161143892919061292f565b60405180910390a2505050505050565b6001600381111561145c5761145b612404565b5b6000803373ffffffffffffffffffffffffffffffffffffffff1673ffffffffffffffffffffffffffffffffffffffff16815260200190815260200160002060009054906101000a900460ff1660038111156114ba576114b9612404565b5b146114fa576040517f08c379a00000000000000000000000000000000000000000000000000000000081526004016114f1906129db565b60405180910390fd5b806000600381111561150f5761150e612404565b5b6000808373ffffffffffffffffffffffffffffffffffffffff1673ffffffffffffffffffffffffffffffffffffffff16815260200190815260200160002060009054906101000a900460ff16600381111561156d5761156c612404565b5b146115ad576040517f08c379a00000000000000000000000000000000000000000000000000000000081526004016115a490612a47565b60405180910390fd5b60026000808473ffffffffffffffffffffffffffffffffffffffff1673ffffffffffffffffffffffffffffffffffffffff16815260200190815260200160002060006101000a81548160ff0219169083600381111561160f5761160e612404565b5b02179055505050565b60006116248585612270565b90506000600160008371ffffffffffffffffffffffffffffffffffff191671ffffffffffffffffffffffffffffffffffff19168152602001908152602001600020805480602002602001604051908101604052809291908181526020016000905b828210156117175783829060005260206000209060020201604051806040016040529081600082015481526020016001820160009054906101000a900473ffffffffffffffffffffffffffffffffffffffff1673ffffffffffffffffffffffffffffffffffffffff1673ffffffffffffffffffffffffffffffffffffffff168152505081526020019060010190611685565b5050505090503373ffffffffffffffffffffffffffffffffffffffff1681600183516117439190612fca565b8151811061175457611753612ffe565b5b60200260200101516020015173ffffffffffffffffffffffffffffffffffffffff16146117b6576040517f08c379a00000000000000000000000000000000000000000000000000000000081526004016117ad9061309f565b60405180910390fd5b600260038111156117ca576117c9612404565b5b6000808673ffffffffffffffffffffffffffffffffffffffff1673ffffffffffffffffffffffffffffffffffffffff16815260200190815260200160002060009054906101000a900460ff16600381111561182857611827612404565b5b14611868576040517f08c379a000000000000000000000000000000000000000000000000000000000815260040161185f9061310b565b60405180910390fd5b3373ffffffffffffffffffffffffffffffffffffffff168473ffffffffffffffffffffffffffffffffffffffff16036118d6576040517f08c379a00000000000000000000000000000000000000000000000000000000081526004016118cd9061319d565b60405180910390fd5b600073ffffffffffffffffffffffffffffffffffffffff16600360008471ffffffffffffffffffffffffffffffffffff191671ffffffffffffffffffffffffffffffffffff1916815260200190815260200160002060020160009054906101000a900473ffffffffffffffffffffffffffffffffffffffff1673ffffffffffffffffffffffffffffffffffffffff16146119a5576040517f08c379a000000000000000000000000000000000000000000000000000000000815260040161199c90613209565b60405180910390fd5b600460008371ffffffffffffffffffffffffffffffffffff191671ffffffffffffffffffffffffffffffffffff1916815260200190815260200160002060009054906101000a900460ff1615611a30576040517f08c379a0000000000000000000000000000000000000000000000000000000008152600401611a27906132c1565b60405180910390fd5b600060405180606001604052808581526020013373ffffffffffffffffffffffffffffffffffffffff1681526020018673ffffffffffffffffffffffffffffffffffffffff16815250905080600360008571ffffffffffffffffffffffffffffffffffff191671ffffffffffffffffffffffffffffffffffff191681526020019081526020016000206000820151816000015560208201518160010160006101000a81548173ffffffffffffffffffffffffffffffffffffffff021916908373ffffffffffffffffffffffffffffffffffffffff16021790555060408201518160020160006101000a81548173ffffffffffffffffffffffffffffffffffffffff021916908373ffffffffffffffffffffffffffffffffffffffff1602179055509050508473ffffffffffffffffffffffffffffffffffffffff163373ffffffffffffffffffffffffffffffffffffffff167f0aec8792492b6d15beb6c085df4652f55020f1ca6780120ff2b518963cd7044585604051611bb191906132e1565b60405180910390a350505050505050565b6000611bce8383612270565b90506000600360008371ffffffffffffffffffffffffffffffffffff191671ffffffffffffffffffffffffffffffffffff19168152602001908152602001600020604051806060016040529081600082015481526020016001820160009054906101000a900473ffffffffffffffffffffffffffffffffffffffff1673ffffffffffffffffffffffffffffffffffffffff1673ffffffffffffffffffffffffffffffffffffffff1681526020016002820160009054906101000a900473ffffffffffffffffffffffffffffffffffffffff1673ffffffffffffffffffffffffffffffffffffffff1673ffffffffffffffffffffffffffffffffffffffff168152505090503373ffffffffffffffffffffffffffffffffffffffff16816040015173ffffffffffffffffffffffffffffffffffffffff1614611d44576040517f08c379a0000000000000000000000000000000000000000000000000000000008152600401611d3b9061336e565b60405180910390fd5b3373ffffffffffffffffffffffffffffffffffffffff16816020015173ffffffffffffffffffffffffffffffffffffffff167f167104c04ad5a6cf9d7820a022d77dfa4ee7e55cb825775c74ef3f97547ae4f084604051611da591906132e1565b60405180910390a3600360008371ffffffffffffffffffffffffffffffffffff191671ffffffffffffffffffffffffffffffffffff191681526020019081526020016000206000808201600090556001820160006101000a81549073ffffffffffffffffffffffffffffffffffffffff02191690556002820160006101000a81549073ffffffffffffffffffffffffffffffffffffffff0219169055505050505050565b60026020528060005260406000206000915090508060000160009054906101000a900473ffffffffffffffffffffffffffffffffffffffff16908060010160009054906101000a900460901b905082565b60016020528160005260406000208181548110611eb657600080fd5b9060005260206000209060020201600091509150508060000154908060010160009054906101000a900473ffffffffffffffffffffffffffffffffffffffff16905082565b6000611f078383612270565b90506000600360008371ffffffffffffffffffffffffffffffffffff191671ffffffffffffffffffffffffffffffffffff19168152602001908152602001600020604051806060016040529081600082015481526020016001820160009054906101000a900473ffffffffffffffffffffffffffffffffffffffff1673ffffffffffffffffffffffffffffffffffffffff1673ffffffffffffffffffffffffffffffffffffffff1681526020016002820160009054906101000a900473ffffffffffffffffffffffffffffffffffffffff1673ffffffffffffffffffffffffffffffffffffffff1673ffffffffffffffffffffffffffffffffffffffff168152505090503373ffffffffffffffffffffffffffffffffffffffff16816040015173ffffffffffffffffffffffffffffffffffffffff161461207d576040517f08c379a00000000000000000000000000000000000000000000000000000000081526004016120749061336e565b60405180910390fd5b60006040518060400160405280836000015181526020013373ffffffffffffffffffffffffffffffffffffffff168152509050600160008471ffffffffffffffffffffffffffffffffffff191671ffffffffffffffffffffffffffffffffffff191681526020019081526020016000208190806001815401808255809150506001900390600052602060002090600202016000909190919091506000820151816000015560208201518160010160006101000a81548173ffffffffffffffffffffffffffffffffffffffff021916908373ffffffffffffffffffffffffffffffffffffffff1602179055505050600360008471ffffffffffffffffffffffffffffffffffff191671ffffffffffffffffffffffffffffffffffff191681526020019081526020016000206000808201600090556001820160006101000a81549073ffffffffffffffffffffffffffffffffffffffff02191690556002820160006101000a81549073ffffffffffffffffffffffffffffffffffffffff021916905550503373ffffffffffffffffffffffffffffffffffffffff16826020015173ffffffffffffffffffffffffffffffffffffffff167fe6c5d94be573004fc4152e074562d51ca97d1ef38b5afc481ab4326f245362008560405161226191906132e1565b60405180910390a35050505050565b60008083838080601f016020809104026020016040519081016040528093929190818152602001838380828437600081840152601f19601f820116905080830192505050505050509050600e815111156122ff576040517f08c379a00000000000000000000000000000000000000000000000000000000081526004016122f6906133da565b60405180910390fd5b8061230990613437565b91505092915050565b600080600160008471ffffffffffffffffffffffffffffffffffff191671ffffffffffffffffffffffffffffffffffff19168152602001908152602001600020805490501115612365576001905061236a565b600090505b919050565b600080fd5b600080fd5b600073ffffffffffffffffffffffffffffffffffffffff82169050919050565b60006123a482612379565b9050919050565b6123b481612399565b81146123bf57600080fd5b50565b6000813590506123d1816123ab565b92915050565b6000602082840312156123ed576123ec61236f565b5b60006123fb848285016123c2565b91505092915050565b7f4e487b7100000000000000000000000000000000000000000000000000000000600052602160045260246000fd5b6004811061244457612443612404565b5b50565b600081905061245582612433565b919050565b600061246582612447565b9050919050565b6124758161245a565b82525050565b6000602082019050612490600083018461246c565b92915050565b6000819050919050565b6124a981612496565b81146124b457600080fd5b50565b6000813590506124c6816124a0565b92915050565b6000806000606084860312156124e5576124e461236f565b5b60006124f3868287016123c2565b9350506020612504868287016123c2565b9250506040612515868287016124b7565b9150509250925092565b600080fd5b600080fd5b600080fd5b60008083601f8401126125445761254361251f565b5b8235905067ffffffffffffffff81111561256157612560612524565b5b60208301915083600182028301111561257d5761257c612529565b5b9250929050565b60008060006040848603121561259d5761259c61236f565b5b600084013567ffffffffffffffff8111156125bb576125ba612374565b5b6125c78682870161252e565b935093505060206125da868287016124b7565b9150509250925092565b600080600080606085870312156125fe576125fd61236f565b5b600085013567ffffffffffffffff81111561261c5761261b612374565b5b6126288782880161252e565b9450945050602061263b878288016123c2565b925050604061264c878288016124b7565b91505092959194509250565b6000819050919050565b61266b81612658565b811461267657600080fd5b50565b60008135905061268881612662565b92915050565b600080600080606085870312156126a8576126a761236f565b5b600085013567ffffffffffffffff8111156126c6576126c5612374565b5b6126d28782880161252e565b945094505060206126e5878288016124b7565b92505060406126f687828801612679565b91505092959194509250565b60007fffffffffffffffffffffffffffff00000000000000000000000000000000000082169050919050565b61273781612702565b811461274257600080fd5b50565b6000813590506127548161272e565b92915050565b6000602082840312156127705761276f61236f565b5b600061277e84828501612745565b91505092915050565b6000819050919050565b60006127ac6127a76127a284612496565b612787565b612496565b9050919050565b6127bc81612791565b82525050565b6127cb81612399565b82525050565b60006060820190506127e660008301866127b3565b6127f360208301856127c2565b61280060408301846127c2565b949350505050565b60008115159050919050565b61281d81612808565b82525050565b60006020820190506128386000830184612814565b92915050565b600080602083850312156128555761285461236f565b5b600083013567ffffffffffffffff81111561287357612872612374565b5b61287f8582860161252e565b92509250509250929050565b61289481612702565b82525050565b60006040820190506128af60008301856127c2565b6128bc602083018461288b565b9392505050565b6128cc81612496565b81146128d757600080fd5b50565b6000813590506128e9816128c3565b92915050565b600080604083850312156129065761290561236f565b5b600061291485828601612745565b9250506020612925858286016128da565b9150509250929050565b600060408201905061294460008301856127b3565b61295160208301846127c2565b9392505050565b600082825260208201905092915050565b7f4f6e6c792061646d696e6973747261746f72732061726520616c6c6f7765642060008201527f746f2065786563757465207468652066756e63696f6e616c6974790000000000602082015250565b60006129c5603b83612958565b91506129d082612969565b604082019050919050565b600060208201905081810360008301526129f4816129b8565b9050919050565b7f6164647265737320697320616c72656164792072656769737465726564000000600082015250565b6000612a31601d83612958565b9150612a3c826129fb565b602082019050919050565b60006020820190508181036000830152612a6081612a24565b9050919050565b7f636f77496420616c726561647920726567697374657265640000000000000000600082015250565b6000612a9d601883612958565b9150612aa882612a67565b602082019050919050565b60006020820190508181036000830152612acc81612a90565b9050919050565b7f61646472657373206e6f7420616c6c6f77656420746f2072656769737465722060008201527f636f770000000000000000000000000000000000000000000000000000000000602082015250565b6000612b2f602383612958565b9150612b3a82612ad3565b604082019050919050565b60006020820190508181036000830152612b5e81612b22565b9050919050565b7f64657669636541646472657373206973206e6f74206173736f6369617465642060008201527f746f206120446576696365000000000000000000000000000000000000000000602082015250565b6000612bc1602b83612958565b9150612bcc82612b65565b604082019050919050565b60006020820190508181036000830152612bf081612bb4565b9050919050565b7f4f6e6c792074686520646576696365206d616e616765722063616e207065726660008201527f6f726d2074686973206f7065726174696f6e0000000000000000000000000000602082015250565b6000612c53603283612958565b9150612c5e82612bf7565b604082019050919050565b60006020820190508181036000830152612c8281612c46565b9050919050565b7f54686520646576696365206973206e6f74206173736f63696174656420746f2060008201527f7468652070726f766964656420636f7749640000000000000000000000000000602082015250565b6000612ce5603283612958565b9150612cf082612c89565b604082019050919050565b60006020820190508181036000830152612d1481612cd8565b9050919050565b7f5468652061646472657373206973206e6f7420616c6c6f777320746f2065786560008201527f6375746520746869732066756e6374696f6e616c697479000000000000000000602082015250565b6000612d77603783612958565b9150612d8282612d1b565b604082019050919050565b60006020820190508181036000830152612da681612d6a565b9050919050565b612db681612658565b82525050565b6000604082019050612dd160008301856127b3565b612dde6020830184612dad565b9392505050565b7f54686520646576696365206973206173736f63696174656420746f20616e6f7460008201527f68657220636f7700000000000000000000000000000000000000000000000000602082015250565b6000612e41602783612958565b9150612e4c82612de5565b604082019050919050565b60006020820190508181036000830152612e7081612e34565b9050919050565b7f43616e6e6f74206173736f636961746520612064657669636520746f2061207060008201527f656e64696e67207472616e73666572206f66206f776e65727368697000000000602082015250565b6000612ed3603c83612958565b9150612ede82612e77565b604082019050919050565b60006020820190508181036000830152612f0281612ec6565b9050919050565b7f636f77496420697320616c7265616479206173736f63696174656420746f206160008201527f6e6f746865722064657669636500000000000000000000000000000000000000602082015250565b6000612f65602d83612958565b9150612f7082612f09565b604082019050919050565b60006020820190508181036000830152612f9481612f58565b9050919050565b7f4e487b7100000000000000000000000000000000000000000000000000000000600052601160045260246000fd5b6000612fd582612496565b9150612fe083612496565b9250828203905081811115612ff857612ff7612f9b565b5b92915050565b7f4e487b7100000000000000000000000000000000000000000000000000000000600052603260045260246000fd5b7f4f6e6c79207468652063757272656e74206f776e65722063616e2063616c6c2060008201527f746869732066756e6374696f6e00000000000000000000000000000000000000602082015250565b6000613089602d83612958565b91506130948261302d565b604082019050919050565b600060208201905081810360008301526130b88161307c565b9050919050565b7f4f6e6c79206163746f72732063616e20626520746865206e6577206f776e6572600082015250565b60006130f5602083612958565b9150613100826130bf565b602082019050919050565b60006020820190508181036000830152613124816130e8565b9050919050565b7f4e6577206f776e6572206d75737420626520646966666572656e742066726f6d60008201527f207468652063757272656e74206f776e65720000000000000000000000000000602082015250565b6000613187603283612958565b91506131928261312b565b604082019050919050565b600060208201905081810360008301526131b68161317a565b9050919050565b7f41207472616e7366657220697320616c72656164792070656e64696e67000000600082015250565b60006131f3601d83612958565b91506131fe826131bd565b602082019050919050565b60006020820190508181036000830152613222816131e6565b9050919050565b7f54686520636f7720686173206e6f7420746f206265206173736f63696174656460008201527f20746f20612064657669636520746f207472616e7366657220746865206f776e60208201527f6572736869700000000000000000000000000000000000000000000000000000604082015250565b60006132ab604683612958565b91506132b682613229565b606082019050919050565b600060208201905081810360008301526132da8161329e565b9050919050565b60006020820190506132f6600083018461288b565b92915050565b7f5468657265206973206e6f7420612070656e64696e67206f776e65727368697060008201527f20666f7220636f77496400000000000000000000000000000000000000000000602082015250565b6000613358602a83612958565b9150613363826132fc565b604082019050919050565b600060208201905081810360008301526133878161334b565b9050919050565b7f636f77496420746f6f206c6f6e67000000000000000000000000000000000000600082015250565b60006133c4600e83612958565b91506133cf8261338e565b602082019050919050565b600060208201905081810360008301526133f3816133b7565b9050919050565b600081519050919050565b6000819050602082019050919050565b60006134218251612702565b80915050919050565b600082821b905092915050565b6000613442826133fa565b8261344c84613405565b905061345781613415565b9250600e821015613497576134927fffffffffffffffffffffffffffff00000000000000000000000000000000000083600e0360080261342a565b831692505b505091905056fea26469706673582212208b2ba5415743a8c8c79a2de0bbc8367601adc4cbef2cfb35d8e62ffe72018afd64736f6c63430008130033",
  "immutableReferences": {},
  "source": "// SPDX-License-Identifier: GPL-3.0\npragma solidity ^0.8.0 <=0.8.19; // Gio: il mio setting locale da problemi con versioni superiori sull'installazione locale di Besu\n\n/* \n    ASSUNZIONI:\n    - I timestamp delle operazioni siano forniti dagli invocatori delle funzioni, ci si aspetta quindi che questi valori siano sempre validi e sensati;\n    - Si assume che i cowId siano validi (viene fatto un check solo sulla loro lunghezza, fissa a 14 caratteri);\n    - Nel passaggio di ownership si interrompe il tracking della mucca, il collare viene quindi disassociato;\n*/\n\n// ALL FUNCTIONALITIES HAVE TO BE CHECKED!\n\ncontract AgritechDemo {\n\n    /* DEFINIZIONE TIPI E STRUCT */\n\n    // Gli identificativi delle mucche sulla Banca Dati Nazionale dell'Anagrafe Zootecnica (BDN) dovrebbero essere sempre di 14 caratteri, 1 byte  un carattere;\n    //type cowid is bytes14;\n\n    // SHA3-256 produce output da 256 bit _> 32 byte\n    //type gpshash is bytes32;\n\n    type timestamp is uint256;\n\n    bytes14 constant EMPTYCOWID = 0x00; // 2 hex = 1 byte\n\n    // Struct dati associazione collare\n    struct DeviceAssociationData {\n        address currentManager;\n        bytes14 currentCow;\n    }\n\n    // Struct dati owneship mucca\n    struct OwnershipData {\n        timestamp startTime;\n        address owner;\n    }\n\n    // Struct dati di transfer owneship mucca\n    struct PendingOwnershipData {\n        timestamp transferTime;\n        address previousOwner;\n        address newOwner;\n    }\n\n    // Ruoli associati agli address\n    enum Roles {\n        NoPriviledge, // Gestione ruolo con indice 0 su mapping\n        Administrator, // Possono assegnare ruoli\n        Actor,\n        Device\n    }\n\n    /* EVENTS */\n\n    event ContractDeployed(address deployer); \n\n    // Evento generato all'associazione di una mucca ad un collare. NOTA: l'aggiunta di una mucca senza l'associazione ad un collare non genera evento\n    event CowToDeviceAssociated(timestamp registrationTime, bytes14 indexed cowId, address deviceAddress);\n    event CowToDeviceDissociated(timestamp registrationTime, bytes14 indexed cowId, address deviceAddress);\n\n    // Evento generato alla generazione di hash per una collezione di informazioni -  EVENTI DA SCANDIRE PER L'INTEGRITY CHECK\n    event IntegritySegment(timestamp lastTimestamp, bytes14 indexed cowId, bytes32 hash);\n\n    // Evento generato alla registrazione di un device da parte dell'amministratore\n    event DeviceRegistered(timestamp registerTime, address deviceAddress, address deviceManager); \n\n    // Eventi generati durante il trasferimento di ownership\n    event OwnershipTransferInitiated(address indexed currentOwner, address indexed proposedOwner, bytes14 cowId);\n    event OwnershipTransferCompleted(address indexed previousOwner, address indexed newOwner, bytes14 cowId);\n    event OwnershipTransferCanceled(address indexed previousOwner, address indexed newOwner, bytes14 cowId);\n\n    /* STATE VARIABLES */\n\n    // Mappa address : ruolo, ruoli degli account per la gestione dei privilegi. NOTA: quando la chiave non  presente da come valore di default 0, quindi ruolo NoPriviledge\n    mapping(address => Roles) public addrToRole; // TO DO : change to internal\n    // Mappa idMucca : listaOwnership, sequenza di ownerships delle mucche\n    mapping(bytes14 => OwnershipData[]) public cowOwnerships; // TO DO : change to internal\n    // Mappa address : gestore-mucca, tiene traccia dell'associazione del collare ad eventuale gestore e mucca\n    mapping(address => DeviceAssociationData) public deviceAssociations; // TO DO : change to internal\n    // Mappa idMucca : pendingOwner, tiene traccia dei cambi di ownership pending\n    mapping(bytes14 => PendingOwnershipData) public pendingOwnerships; // TO DO : change to internal\n    // Mappa idMucca : bool, tiene traccia del fatto che una mucca ha associato un device (utile per la verifica che una mucca sia senza collare prima del transfer)\n    mapping(bytes14 => bool) public hasCowAssociatedDevice;\n\n    constructor() {\n        addrToRole[msg.sender] = Roles.Administrator;\n        //emit ContractDeployed(msg.sender);\n    }\n\n    modifier onlyAdministrators{\n        require(addrToRole[msg.sender] == Roles.Administrator, \"Only administrators are allowed to execute the funcionality\");\n        _;\n    }\n    \n    // NOTA: Roles are currently permanent\n    modifier notPreviouslyRegistered (address _address) {\n        require(addrToRole[_address] == Roles.NoPriviledge, \"address is already registered\"); \n        _;\n    }\n\n    function registerNewAdmin (address _adminAddress) external onlyAdministrators notPreviouslyRegistered(_adminAddress) {\n        addrToRole[_adminAddress] = Roles.Administrator;\n    } // \n\n\n    function registerNewActor (address _actorAddress) external onlyAdministrators notPreviouslyRegistered(_actorAddress) {\n        addrToRole[_actorAddress] = Roles.Actor;\n    }\n\n    function registerNewDevice (address _deviceAddress, address _managerAddress, timestamp _registerTime) external onlyAdministrators notPreviouslyRegistered(_deviceAddress) {\n        addrToRole[_deviceAddress] = Roles.Device;\n        deviceAssociations[_deviceAddress] = DeviceAssociationData(_managerAddress, EMPTYCOWID);\n        emit DeviceRegistered(_registerTime, _deviceAddress, _managerAddress);\n    }\n\n    function checkAndConvertCowId (string calldata _cowId) private pure returns (bytes14) { \n        bytes memory cowIdBytes = bytes(_cowId);\n        require(cowIdBytes.length <= 14, \"cowId too long\"); // minimal check invalid cowId\n        return bytes14(cowIdBytes);\n    }\n\n    function isCowRegistered(bytes14 cowIdBytes14) private view returns (bool) {\n        if (cowOwnerships[cowIdBytes14].length > 0)\n            return true;\n        else\n            return false;\n    }\n\n    // QUESTA FUNZIONE SEMBRA AVERE PROBLEMI DI GAS\n    function addCow (string calldata _cowId, timestamp _registrationTime) public {\n        // VALIDITY CHECKS\n        bytes14 cowIdBytes14 = checkAndConvertCowId(_cowId);\n        require(!isCowRegistered(cowIdBytes14), \"cowId already registered\");\n        require(addrToRole[msg.sender] == Roles.Actor, \"address not allowed to register cow\"); \n        \n        // SAVE OWNERSHIP\n        OwnershipData memory newOwnership = OwnershipData({\n            owner: msg.sender,\n            startTime: _registrationTime\n        });\n        cowOwnerships[cowIdBytes14].push(newOwnership);\n    }\n\n    function associateDeviceToCow(string calldata _cowId, address _deviceAddress, timestamp _startTime) public {\n        // VALIDITY CHECKS\n        require(addrToRole[_deviceAddress] == Roles.Device, \"deviceAddress is not associated to a Device\"); \n        DeviceAssociationData memory deviceAssociation = deviceAssociations[_deviceAddress];\n        require(deviceAssociation.currentManager == msg.sender, \"Only the device manager can perform this operation\");\n        require(deviceAssociation.currentCow == EMPTYCOWID, \"The device is associated to another cow\");\n        bytes14 cowIdBytes14 = checkAndConvertCowId(_cowId);\n        require(pendingOwnerships[cowIdBytes14].newOwner == address(0), \"Cannot associate a device to a pending transfer of ownership\");\n        require(!hasCowAssociatedDevice[cowIdBytes14], \"cowId is already associated to another device\");\n\n        // add cow if not registered yet\n        if (!isCowRegistered(cowIdBytes14))\n            addCow(_cowId, _startTime); \n\n        // ASSOCIATE DEVICE TO COW\n        deviceAssociations[_deviceAddress].currentCow = cowIdBytes14;\n        hasCowAssociatedDevice[cowIdBytes14] = true;\n        emit CowToDeviceAssociated(_startTime , cowIdBytes14, _deviceAddress);\n    }\n\n    function dissociateDeviceToCow(string calldata _cowId, address _deviceAddress, timestamp _endTime) public {\n        // VALIDITY CHECKS\n        require(addrToRole[_deviceAddress] == Roles.Device, \"deviceAddress is not associated to a Device\"); \n        DeviceAssociationData memory deviceAssociation = deviceAssociations[_deviceAddress];\n        require(deviceAssociation.currentManager == msg.sender, \"Only the device manager can perform this operation\");\n        bytes14 cowIdBytes14 = checkAndConvertCowId(_cowId);\n        require(deviceAssociation.currentCow == cowIdBytes14, \"The device is not associated to the provided cowId\");\n\n        // DISSOCIATE DEVICE TO COW\n        deviceAssociations[_deviceAddress].currentCow = EMPTYCOWID;\n        delete hasCowAssociatedDevice[cowIdBytes14];\n        emit CowToDeviceDissociated(_endTime, cowIdBytes14, _deviceAddress);\n    }\n\n    function transferOwnership(string calldata _cowId, address _newOwner, timestamp _transferTime) public {\n        // VALIDITY CHECKS\n        bytes14 cowIdBytes14 = checkAndConvertCowId(_cowId);\n        OwnershipData[] memory currentCowOwnerships = cowOwnerships[cowIdBytes14];\n        require(currentCowOwnerships[currentCowOwnerships.length-1].owner == msg.sender, \"Only the current owner can call this function\");\n        require(addrToRole[_newOwner] == Roles.Actor, \"Only actors can be the new owner\");\n        require(_newOwner != msg.sender, \"New owner must be different from the current owner\");\n        require(pendingOwnerships[cowIdBytes14].newOwner == address(0), \"A transfer is already pending\");\n        require(!hasCowAssociatedDevice[cowIdBytes14], \"The cow has not to be associated to a device to transfer the ownership\");\n\n        // PENDING TRANSFER\n        PendingOwnershipData memory newPOD = PendingOwnershipData({\n            newOwner: _newOwner,\n            previousOwner: msg.sender,\n            transferTime: _transferTime\n        });\n        pendingOwnerships[cowIdBytes14] = newPOD;        \n        emit OwnershipTransferInitiated(msg.sender, _newOwner, cowIdBytes14);\n    }\n\n    function acceptOwnership(string calldata _cowId) public  {\n        // VALIDITY CHECKS\n        bytes14 cowIdBytes14 = checkAndConvertCowId(_cowId);\n        PendingOwnershipData memory POD = pendingOwnerships[cowIdBytes14];\n        require(POD.newOwner == msg.sender, \"There is not a pending ownership for cowId\");\n\n        // COMPLETE TRANSFER\n        OwnershipData memory newOwnership = OwnershipData({\n            owner: msg.sender,\n            startTime: POD.transferTime\n        });\n        cowOwnerships[cowIdBytes14].push(newOwnership);\n        delete pendingOwnerships[cowIdBytes14];\n        emit OwnershipTransferCompleted(POD.previousOwner, msg.sender, cowIdBytes14);\n    }\n\n    function cancelTransfer(string calldata _cowId) public {\n        // VALIDITY CHECKS\n        bytes14 cowIdBytes14 = checkAndConvertCowId(_cowId);\n        PendingOwnershipData memory POD = pendingOwnerships[cowIdBytes14];\n        require(POD.newOwner == msg.sender, \"There is not a pending ownership for cowId\");\n\n        // CANCEL TRANSFER\n        emit OwnershipTransferCanceled(POD.previousOwner, msg.sender, cowIdBytes14);\n        delete pendingOwnerships[cowIdBytes14];\n\n    }\n\n    function storeIntegritySegment(string calldata _cowId, timestamp _updateTime, bytes32 gpshash) public {\n        // VALIDITY CHECKS\n        bytes14 cowIdBytes14 = checkAndConvertCowId(_cowId);\n        require(deviceAssociations[msg.sender].currentCow == cowIdBytes14, \"The address is not allows to execute this functionality\");\n\n        // STORE INTEGRITY SEGMENT\n        emit IntegritySegment(_updateTime, cowIdBytes14, gpshash);\n    }\n\n}",
  "sourcePath": "/Users/giovannifarina/agritechdemodlt/contracts/AgritechDemo.sol",
  "compiler": {
    "name": "solc",
    "version": "0.8.19+commit.7dd6d404.Emscripten.clang"
  },
  "schemaVersion": "3.4.16",
  "updatedAt": "2024-08-02T12:55:10.891Z",
  "networkType": "ethereum",
  "devdoc": {
    "kind": "dev",
    "methods": {},
    "version": 1
  },
  "userdoc": {
    "kind": "user",
    "methods": {},
    "version": 1
  }
}