{
  "contractName": "AgritechDemo",
  "abi": [
    {
      "inputs": [],
      "stateMutability": "nonpayable",
      "type": "constructor"
    },
    {
      "anonymous": false,
      "inputs": [
        {
          "indexed": false,
          "internalType": "AgritechDemo.timestamp",
          "name": "registrationTime",
          "type": "uint256"
        },
        {
          "indexed": true,
          "internalType": "bytes14",
          "name": "cowId",
          "type": "bytes14"
        },
        {
          "indexed": false,
          "internalType": "address",
          "name": "deviceAddress",
          "type": "address"
        }
      ],
      "name": "CowToDeviceAssociated",
      "type": "event"
    },
    {
      "anonymous": false,
      "inputs": [
        {
          "indexed": false,
          "internalType": "AgritechDemo.timestamp",
          "name": "registrationTime",
          "type": "uint256"
        },
        {
          "indexed": true,
          "internalType": "bytes14",
          "name": "cowId",
          "type": "bytes14"
        },
        {
          "indexed": false,
          "internalType": "address",
          "name": "deviceAddress",
          "type": "address"
        }
      ],
      "name": "CowToDeviceDissociated",
      "type": "event"
    },
    {
      "anonymous": false,
      "inputs": [
        {
          "indexed": false,
          "internalType": "AgritechDemo.timestamp",
          "name": "registerTime",
          "type": "uint256"
        },
        {
          "indexed": false,
          "internalType": "address",
          "name": "deviceAddress",
          "type": "address"
        },
        {
          "indexed": false,
          "internalType": "address",
          "name": "deviceManager",
          "type": "address"
        }
      ],
      "name": "DeviceRegistered",
      "type": "event"
    },
    {
      "anonymous": false,
      "inputs": [
        {
          "indexed": false,
          "internalType": "AgritechDemo.timestamp",
          "name": "lastTimestamp",
          "type": "uint256"
        },
        {
          "indexed": true,
          "internalType": "bytes14",
          "name": "cowId",
          "type": "bytes14"
        },
        {
          "indexed": false,
          "internalType": "bytes32",
          "name": "hash",
          "type": "bytes32"
        }
      ],
      "name": "IntegritySegment",
      "type": "event"
    },
    {
      "anonymous": false,
      "inputs": [
        {
          "indexed": true,
          "internalType": "address",
          "name": "previousOwner",
          "type": "address"
        },
        {
          "indexed": true,
          "internalType": "address",
          "name": "newOwner",
          "type": "address"
        },
        {
          "indexed": false,
          "internalType": "bytes14",
          "name": "cowId",
          "type": "bytes14"
        }
      ],
      "name": "OwnershipTransferCanceled",
      "type": "event"
    },
    {
      "anonymous": false,
      "inputs": [
        {
          "indexed": true,
          "internalType": "address",
          "name": "previousOwner",
          "type": "address"
        },
        {
          "indexed": true,
          "internalType": "address",
          "name": "newOwner",
          "type": "address"
        },
        {
          "indexed": false,
          "internalType": "bytes14",
          "name": "cowId",
          "type": "bytes14"
        }
      ],
      "name": "OwnershipTransferCompleted",
      "type": "event"
    },
    {
      "anonymous": false,
      "inputs": [
        {
          "indexed": true,
          "internalType": "address",
          "name": "currentOwner",
          "type": "address"
        },
        {
          "indexed": true,
          "internalType": "address",
          "name": "proposedOwner",
          "type": "address"
        },
        {
          "indexed": false,
          "internalType": "bytes14",
          "name": "cowId",
          "type": "bytes14"
        }
      ],
      "name": "OwnershipTransferInitiated",
      "type": "event"
    },
    {
      "inputs": [
        {
          "internalType": "address",
          "name": "_adminAddress",
          "type": "address"
        }
      ],
      "name": "registerNewAdmin",
      "outputs": [],
      "stateMutability": "nonpayable",
      "type": "function"
    },
    {
      "inputs": [
        {
          "internalType": "address",
          "name": "_actorAddress",
          "type": "address"
        }
      ],
      "name": "registerNewActor",
      "outputs": [],
      "stateMutability": "nonpayable",
      "type": "function"
    },
    {
      "inputs": [
        {
          "internalType": "address",
          "name": "_deviceAddress",
          "type": "address"
        },
        {
          "internalType": "address",
          "name": "_managerAddress",
          "type": "address"
        },
        {
          "internalType": "AgritechDemo.timestamp",
          "name": "_registerTime",
          "type": "uint256"
        }
      ],
      "name": "registerNewDevice",
      "outputs": [],
      "stateMutability": "nonpayable",
      "type": "function"
    },
    {
      "inputs": [
        {
          "internalType": "string",
          "name": "_cowId",
          "type": "string"
        },
        {
          "internalType": "AgritechDemo.timestamp",
          "name": "_registrationTime",
          "type": "uint256"
        }
      ],
      "name": "addCow",
      "outputs": [],
      "stateMutability": "nonpayable",
      "type": "function"
    },
    {
      "inputs": [
        {
          "internalType": "string",
          "name": "_cowId",
          "type": "string"
        },
        {
          "internalType": "address",
          "name": "_deviceAddress",
          "type": "address"
        },
        {
          "internalType": "AgritechDemo.timestamp",
          "name": "_startTime",
          "type": "uint256"
        }
      ],
      "name": "associateDeviceToCow",
      "outputs": [],
      "stateMutability": "nonpayable",
      "type": "function"
    },
    {
      "inputs": [
        {
          "internalType": "string",
          "name": "_cowId",
          "type": "string"
        },
        {
          "internalType": "address",
          "name": "_deviceAddress",
          "type": "address"
        },
        {
          "internalType": "AgritechDemo.timestamp",
          "name": "_endTime",
          "type": "uint256"
        }
      ],
      "name": "dissociateDeviceToCow",
      "outputs": [],
      "stateMutability": "nonpayable",
      "type": "function"
    },
    {
      "inputs": [
        {
          "internalType": "string",
          "name": "_cowId",
          "type": "string"
        },
        {
          "internalType": "address",
          "name": "_newOwner",
          "type": "address"
        },
        {
          "internalType": "AgritechDemo.timestamp",
          "name": "_transferTime",
          "type": "uint256"
        }
      ],
      "name": "transferOwnership",
      "outputs": [],
      "stateMutability": "nonpayable",
      "type": "function"
    },
    {
      "inputs": [
        {
          "internalType": "string",
          "name": "_cowId",
          "type": "string"
        }
      ],
      "name": "acceptOwnership",
      "outputs": [],
      "stateMutability": "nonpayable",
      "type": "function"
    },
    {
      "inputs": [
        {
          "internalType": "string",
          "name": "_cowId",
          "type": "string"
        }
      ],
      "name": "cancelTransfer",
      "outputs": [],
      "stateMutability": "nonpayable",
      "type": "function"
    },
    {
      "inputs": [
        {
          "internalType": "string",
          "name": "_cowId",
          "type": "string"
        },
        {
          "internalType": "AgritechDemo.timestamp",
          "name": "_updateTime",
          "type": "uint256"
        },
        {
          "internalType": "bytes32",
          "name": "gpshash",
          "type": "bytes32"
        }
      ],
      "name": "storeIntegritySegment",
      "outputs": [],
      "stateMutability": "nonpayable",
      "type": "function"
    }
  ],
  "bytecode": "0x60806040523480156200001157600080fd5b5060016000803373ffffffffffffffffffffffffffffffffffffffff1673ffffffffffffffffffffffffffffffffffffffff16815260200190815260200160002060006101000a81548160ff0219169083600381111562000077576200007662000082565b5b0217905550620000b1565b7f4e487b7100000000000000000000000000000000000000000000000000000000600052602160045260246000fd5b6130a680620000c16000396000f3fe608060405234801561001057600080fd5b506004361061009e5760003560e01c806389b43e0e1161006657806389b43e0e1461012f578063936159ac1461014b578063a24aadf414610167578063b0aefc8414610183578063ff83f5621461019f5761009e565b806327204103146100a3578063296a857b146100bf5780632b0ab64d146100db5780634e7d8460146100f757806355c8292214610113575b600080fd5b6100bd60048036038101906100b89190612166565b6101bb565b005b6100d960048036038101906100d4919061221e565b6104c3565b005b6100f560048036038101906100f0919061227e565b6106bc565b005b610111600480360381019061010c91906122ab565b61088c565b005b61012d60048036038101906101289190612355565b610c22565b005b610149600480360381019061014491906122ab565b610d41565b005b6101656004803603810190610160919061227e565b611253565b005b610181600480360381019061017c91906122ab565b611423565b005b61019d600480360381019061019891906123c9565b6119cd565b005b6101b960048036038101906101b491906123c9565b611c54565b005b600160038111156101cf576101ce612416565b5b6000803373ffffffffffffffffffffffffffffffffffffffff1673ffffffffffffffffffffffffffffffffffffffff16815260200190815260200160002060009054906101000a900460ff16600381111561022d5761022c612416565b5b1461026d576040517f08c379a0000000000000000000000000000000000000000000000000000000008152600401610264906124c8565b60405180910390fd5b826000600381111561028257610281612416565b5b6000808373ffffffffffffffffffffffffffffffffffffffff1673ffffffffffffffffffffffffffffffffffffffff16815260200190815260200160002060009054906101000a900460ff1660038111156102e0576102df612416565b5b14610320576040517f08c379a000000000000000000000000000000000000000000000000000000000815260040161031790612534565b60405180910390fd5b60036000808673ffffffffffffffffffffffffffffffffffffffff1673ffffffffffffffffffffffffffffffffffffffff16815260200190815260200160002060006101000a81548160ff0219169083600381111561038257610381612416565b5b021790555060405180604001604052808473ffffffffffffffffffffffffffffffffffffffff168152602001600060901b71ffffffffffffffffffffffffffffffffffff1916815250600260008673ffffffffffffffffffffffffffffffffffffffff1673ffffffffffffffffffffffffffffffffffffffff16815260200190815260200160002060008201518160000160006101000a81548173ffffffffffffffffffffffffffffffffffffffff021916908373ffffffffffffffffffffffffffffffffffffffff16021790555060208201518160010160006101000a8154816dffffffffffffffffffffffffffff021916908360901c02179055509050507f2fb179bac3c9c4dd82699cf12fa366ba1bcdb88f21c8251c559435288eb81bf08285856040516104b59392919061259e565b60405180910390a150505050565b60006104cf8484611fc9565b90506104da8161206b565b1561051a576040517f08c379a000000000000000000000000000000000000000000000000000000000815260040161051190612621565b60405180910390fd5b6002600381111561052e5761052d612416565b5b6000803373ffffffffffffffffffffffffffffffffffffffff1673ffffffffffffffffffffffffffffffffffffffff16815260200190815260200160002060009054906101000a900460ff16600381111561058c5761058b612416565b5b146105cc576040517f08c379a00000000000000000000000000000000000000000000000000000000081526004016105c3906126b3565b60405180910390fd5b600060405180604001604052808481526020013373ffffffffffffffffffffffffffffffffffffffff168152509050600160008371ffffffffffffffffffffffffffffffffffff191671ffffffffffffffffffffffffffffffffffff191681526020019081526020016000208190806001815401808255809150506001900390600052602060002090600202016000909190919091506000820151816000015560208201518160010160006101000a81548173ffffffffffffffffffffffffffffffffffffffff021916908373ffffffffffffffffffffffffffffffffffffffff16021790555050505050505050565b600160038111156106d0576106cf612416565b5b6000803373ffffffffffffffffffffffffffffffffffffffff1673ffffffffffffffffffffffffffffffffffffffff16815260200190815260200160002060009054906101000a900460ff16600381111561072e5761072d612416565b5b1461076e576040517f08c379a0000000000000000000000000000000000000000000000000000000008152600401610765906124c8565b60405180910390fd5b806000600381111561078357610782612416565b5b6000808373ffffffffffffffffffffffffffffffffffffffff1673ffffffffffffffffffffffffffffffffffffffff16815260200190815260200160002060009054906101000a900460ff1660038111156107e1576107e0612416565b5b14610821576040517f08c379a000000000000000000000000000000000000000000000000000000000815260040161081890612534565b60405180910390fd5b60016000808473ffffffffffffffffffffffffffffffffffffffff1673ffffffffffffffffffffffffffffffffffffffff16815260200190815260200160002060006101000a81548160ff0219169083600381111561088357610882612416565b5b02179055505050565b60038081111561089f5761089e612416565b5b6000808473ffffffffffffffffffffffffffffffffffffffff1673ffffffffffffffffffffffffffffffffffffffff16815260200190815260200160002060009054906101000a900460ff1660038111156108fd576108fc612416565b5b1461093d576040517f08c379a000000000000000000000000000000000000000000000000000000000815260040161093490612745565b60405180910390fd5b6000600260008473ffffffffffffffffffffffffffffffffffffffff1673ffffffffffffffffffffffffffffffffffffffff1681526020019081526020016000206040518060400160405290816000820160009054906101000a900473ffffffffffffffffffffffffffffffffffffffff1673ffffffffffffffffffffffffffffffffffffffff1673ffffffffffffffffffffffffffffffffffffffff1681526020016001820160009054906101000a900460901b71ffffffffffffffffffffffffffffffffffff191671ffffffffffffffffffffffffffffffffffff19168152505090503373ffffffffffffffffffffffffffffffffffffffff16816000015173ffffffffffffffffffffffffffffffffffffffff1614610a94576040517f08c379a0000000000000000000000000000000000000000000000000000000008152600401610a8b906127d7565b60405180910390fd5b6000610aa08686611fc9565b90508071ffffffffffffffffffffffffffffffffffff1916826020015171ffffffffffffffffffffffffffffffffffff191614610b12576040517f08c379a0000000000000000000000000000000000000000000000000000000008152600401610b0990612869565b60405180910390fd5b600060901b600260008673ffffffffffffffffffffffffffffffffffffffff1673ffffffffffffffffffffffffffffffffffffffff16815260200190815260200160002060010160006101000a8154816dffffffffffffffffffffffffffff021916908360901c0217905550600460008271ffffffffffffffffffffffffffffffffffff191671ffffffffffffffffffffffffffffffffffff1916815260200190815260200160002060006101000a81549060ff02191690558071ffffffffffffffffffffffffffffffffffff19167fb37860d398b4e21a9336c4639c61e06b3cf3e5148c8bdb108e550b04c3d83cac8486604051610c12929190612889565b60405180910390a2505050505050565b6000610c2e8585611fc9565b90508071ffffffffffffffffffffffffffffffffffff1916600260003373ffffffffffffffffffffffffffffffffffffffff1673ffffffffffffffffffffffffffffffffffffffff16815260200190815260200160002060010160009054906101000a900460901b71ffffffffffffffffffffffffffffffffffff191614610ceb576040517f08c379a0000000000000000000000000000000000000000000000000000000008152600401610ce290612924565b60405180910390fd5b8071ffffffffffffffffffffffffffffffffffff19167fd14e1890912e11bf517de00ac15cafb6f2ec2ca2db1db491f4ea478e3ba086e18484604051610d32929190612953565b60405180910390a25050505050565b600380811115610d5457610d53612416565b5b6000808473ffffffffffffffffffffffffffffffffffffffff1673ffffffffffffffffffffffffffffffffffffffff16815260200190815260200160002060009054906101000a900460ff166003811115610db257610db1612416565b5b14610df2576040517f08c379a0000000000000000000000000000000000000000000000000000000008152600401610de990612745565b60405180910390fd5b6000600260008473ffffffffffffffffffffffffffffffffffffffff1673ffffffffffffffffffffffffffffffffffffffff1681526020019081526020016000206040518060400160405290816000820160009054906101000a900473ffffffffffffffffffffffffffffffffffffffff1673ffffffffffffffffffffffffffffffffffffffff1673ffffffffffffffffffffffffffffffffffffffff1681526020016001820160009054906101000a900460901b71ffffffffffffffffffffffffffffffffffff191671ffffffffffffffffffffffffffffffffffff19168152505090503373ffffffffffffffffffffffffffffffffffffffff16816000015173ffffffffffffffffffffffffffffffffffffffff1614610f49576040517f08c379a0000000000000000000000000000000000000000000000000000000008152600401610f40906127d7565b60405180910390fd5b600060901b71ffffffffffffffffffffffffffffffffffff1916816020015171ffffffffffffffffffffffffffffffffffff191614610fbd576040517f08c379a0000000000000000000000000000000000000000000000000000000008152600401610fb4906129ee565b60405180910390fd5b6000610fc98686611fc9565b9050600073ffffffffffffffffffffffffffffffffffffffff16600360008371ffffffffffffffffffffffffffffffffffff191671ffffffffffffffffffffffffffffffffffff1916815260200190815260200160002060020160009054906101000a900473ffffffffffffffffffffffffffffffffffffffff1673ffffffffffffffffffffffffffffffffffffffff161461109a576040517f08c379a000000000000000000000000000000000000000000000000000000000815260040161109190612a80565b60405180910390fd5b600460008271ffffffffffffffffffffffffffffffffffff191671ffffffffffffffffffffffffffffffffffff1916815260200190815260200160002060009054906101000a900460ff1615611125576040517f08c379a000000000000000000000000000000000000000000000000000000000815260040161111c90612b12565b60405180910390fd5b61112e8161206b565b61113e5761113d8686856104c3565b5b80600260008673ffffffffffffffffffffffffffffffffffffffff1673ffffffffffffffffffffffffffffffffffffffff16815260200190815260200160002060010160006101000a8154816dffffffffffffffffffffffffffff021916908360901c02179055506001600460008371ffffffffffffffffffffffffffffffffffff191671ffffffffffffffffffffffffffffffffffff1916815260200190815260200160002060006101000a81548160ff0219169083151502179055508071ffffffffffffffffffffffffffffffffffff19167fed398bd4bd0680e162202b9793dd5f101566a082fe165c01eefe02881e0337758486604051611243929190612889565b60405180910390a2505050505050565b6001600381111561126757611266612416565b5b6000803373ffffffffffffffffffffffffffffffffffffffff1673ffffffffffffffffffffffffffffffffffffffff16815260200190815260200160002060009054906101000a900460ff1660038111156112c5576112c4612416565b5b14611305576040517f08c379a00000000000000000000000000000000000000000000000000000000081526004016112fc906124c8565b60405180910390fd5b806000600381111561131a57611319612416565b5b6000808373ffffffffffffffffffffffffffffffffffffffff1673ffffffffffffffffffffffffffffffffffffffff16815260200190815260200160002060009054906101000a900460ff16600381111561137857611377612416565b5b146113b8576040517f08c379a00000000000000000000000000000000000000000000000000000000081526004016113af90612534565b60405180910390fd5b60026000808473ffffffffffffffffffffffffffffffffffffffff1673ffffffffffffffffffffffffffffffffffffffff16815260200190815260200160002060006101000a81548160ff0219169083600381111561141a57611419612416565b5b02179055505050565b600061142f8585611fc9565b90506000600160008371ffffffffffffffffffffffffffffffffffff191671ffffffffffffffffffffffffffffffffffff19168152602001908152602001600020805480602002602001604051908101604052809291908181526020016000905b828210156115225783829060005260206000209060020201604051806040016040529081600082015481526020016001820160009054906101000a900473ffffffffffffffffffffffffffffffffffffffff1673ffffffffffffffffffffffffffffffffffffffff1673ffffffffffffffffffffffffffffffffffffffff168152505081526020019060010190611490565b5050505090503373ffffffffffffffffffffffffffffffffffffffff16816001835161154e9190612b61565b8151811061155f5761155e612b95565b5b60200260200101516020015173ffffffffffffffffffffffffffffffffffffffff16146115c1576040517f08c379a00000000000000000000000000000000000000000000000000000000081526004016115b890612c36565b60405180910390fd5b600260038111156115d5576115d4612416565b5b6000808673ffffffffffffffffffffffffffffffffffffffff1673ffffffffffffffffffffffffffffffffffffffff16815260200190815260200160002060009054906101000a900460ff16600381111561163357611632612416565b5b14611673576040517f08c379a000000000000000000000000000000000000000000000000000000000815260040161166a90612ca2565b60405180910390fd5b3373ffffffffffffffffffffffffffffffffffffffff168473ffffffffffffffffffffffffffffffffffffffff16036116e1576040517f08c379a00000000000000000000000000000000000000000000000000000000081526004016116d890612d34565b60405180910390fd5b600073ffffffffffffffffffffffffffffffffffffffff16600360008471ffffffffffffffffffffffffffffffffffff191671ffffffffffffffffffffffffffffffffffff1916815260200190815260200160002060020160009054906101000a900473ffffffffffffffffffffffffffffffffffffffff1673ffffffffffffffffffffffffffffffffffffffff16146117b0576040517f08c379a00000000000000000000000000000000000000000000000000000000081526004016117a790612da0565b60405180910390fd5b600460008371ffffffffffffffffffffffffffffffffffff191671ffffffffffffffffffffffffffffffffffff1916815260200190815260200160002060009054906101000a900460ff161561183b576040517f08c379a000000000000000000000000000000000000000000000000000000000815260040161183290612e58565b60405180910390fd5b600060405180606001604052808581526020013373ffffffffffffffffffffffffffffffffffffffff1681526020018673ffffffffffffffffffffffffffffffffffffffff16815250905080600360008571ffffffffffffffffffffffffffffffffffff191671ffffffffffffffffffffffffffffffffffff191681526020019081526020016000206000820151816000015560208201518160010160006101000a81548173ffffffffffffffffffffffffffffffffffffffff021916908373ffffffffffffffffffffffffffffffffffffffff16021790555060408201518160020160006101000a81548173ffffffffffffffffffffffffffffffffffffffff021916908373ffffffffffffffffffffffffffffffffffffffff1602179055509050508473ffffffffffffffffffffffffffffffffffffffff163373ffffffffffffffffffffffffffffffffffffffff167f0aec8792492b6d15beb6c085df4652f55020f1ca6780120ff2b518963cd70445856040516119bc9190612eb3565b60405180910390a350505050505050565b60006119d98383611fc9565b90506000600360008371ffffffffffffffffffffffffffffffffffff191671ffffffffffffffffffffffffffffffffffff19168152602001908152602001600020604051806060016040529081600082015481526020016001820160009054906101000a900473ffffffffffffffffffffffffffffffffffffffff1673ffffffffffffffffffffffffffffffffffffffff1673ffffffffffffffffffffffffffffffffffffffff1681526020016002820160009054906101000a900473ffffffffffffffffffffffffffffffffffffffff1673ffffffffffffffffffffffffffffffffffffffff1673ffffffffffffffffffffffffffffffffffffffff168152505090503373ffffffffffffffffffffffffffffffffffffffff16816040015173ffffffffffffffffffffffffffffffffffffffff1614611b4f576040517f08c379a0000000000000000000000000000000000000000000000000000000008152600401611b4690612f40565b60405180910390fd5b3373ffffffffffffffffffffffffffffffffffffffff16816020015173ffffffffffffffffffffffffffffffffffffffff167f167104c04ad5a6cf9d7820a022d77dfa4ee7e55cb825775c74ef3f97547ae4f084604051611bb09190612eb3565b60405180910390a3600360008371ffffffffffffffffffffffffffffffffffff191671ffffffffffffffffffffffffffffffffffff191681526020019081526020016000206000808201600090556001820160006101000a81549073ffffffffffffffffffffffffffffffffffffffff02191690556002820160006101000a81549073ffffffffffffffffffffffffffffffffffffffff0219169055505050505050565b6000611c608383611fc9565b90506000600360008371ffffffffffffffffffffffffffffffffffff191671ffffffffffffffffffffffffffffffffffff19168152602001908152602001600020604051806060016040529081600082015481526020016001820160009054906101000a900473ffffffffffffffffffffffffffffffffffffffff1673ffffffffffffffffffffffffffffffffffffffff1673ffffffffffffffffffffffffffffffffffffffff1681526020016002820160009054906101000a900473ffffffffffffffffffffffffffffffffffffffff1673ffffffffffffffffffffffffffffffffffffffff1673ffffffffffffffffffffffffffffffffffffffff168152505090503373ffffffffffffffffffffffffffffffffffffffff16816040015173ffffffffffffffffffffffffffffffffffffffff1614611dd6576040517f08c379a0000000000000000000000000000000000000000000000000000000008152600401611dcd90612f40565b60405180910390fd5b60006040518060400160405280836000015181526020013373ffffffffffffffffffffffffffffffffffffffff168152509050600160008471ffffffffffffffffffffffffffffffffffff191671ffffffffffffffffffffffffffffffffffff191681526020019081526020016000208190806001815401808255809150506001900390600052602060002090600202016000909190919091506000820151816000015560208201518160010160006101000a81548173ffffffffffffffffffffffffffffffffffffffff021916908373ffffffffffffffffffffffffffffffffffffffff1602179055505050600360008471ffffffffffffffffffffffffffffffffffff191671ffffffffffffffffffffffffffffffffffff191681526020019081526020016000206000808201600090556001820160006101000a81549073ffffffffffffffffffffffffffffffffffffffff02191690556002820160006101000a81549073ffffffffffffffffffffffffffffffffffffffff021916905550503373ffffffffffffffffffffffffffffffffffffffff16826020015173ffffffffffffffffffffffffffffffffffffffff167fe6c5d94be573004fc4152e074562d51ca97d1ef38b5afc481ab4326f2453620085604051611fba9190612eb3565b60405180910390a35050505050565b60008083838080601f016020809104026020016040519081016040528093929190818152602001838380828437600081840152601f19601f820116905080830192505050505050509050600e81511115612058576040517f08c379a000000000000000000000000000000000000000000000000000000000815260040161204f90612fac565b60405180910390fd5b8061206290613009565b91505092915050565b600080600160008471ffffffffffffffffffffffffffffffffffff191671ffffffffffffffffffffffffffffffffffff191681526020019081526020016000208054905011156120be57600190506120c3565b600090505b919050565b600080fd5b600080fd5b600073ffffffffffffffffffffffffffffffffffffffff82169050919050565b60006120fd826120d2565b9050919050565b61210d816120f2565b811461211857600080fd5b50565b60008135905061212a81612104565b92915050565b6000819050919050565b61214381612130565b811461214e57600080fd5b50565b6000813590506121608161213a565b92915050565b60008060006060848603121561217f5761217e6120c8565b5b600061218d8682870161211b565b935050602061219e8682870161211b565b92505060406121af86828701612151565b9150509250925092565b600080fd5b600080fd5b600080fd5b60008083601f8401126121de576121dd6121b9565b5b8235905067ffffffffffffffff8111156121fb576121fa6121be565b5b602083019150836001820283011115612217576122166121c3565b5b9250929050565b600080600060408486031215612237576122366120c8565b5b600084013567ffffffffffffffff811115612255576122546120cd565b5b612261868287016121c8565b9350935050602061227486828701612151565b9150509250925092565b600060208284031215612294576122936120c8565b5b60006122a28482850161211b565b91505092915050565b600080600080606085870312156122c5576122c46120c8565b5b600085013567ffffffffffffffff8111156122e3576122e26120cd565b5b6122ef878288016121c8565b945094505060206123028782880161211b565b925050604061231387828801612151565b91505092959194509250565b6000819050919050565b6123328161231f565b811461233d57600080fd5b50565b60008135905061234f81612329565b92915050565b6000806000806060858703121561236f5761236e6120c8565b5b600085013567ffffffffffffffff81111561238d5761238c6120cd565b5b612399878288016121c8565b945094505060206123ac87828801612151565b92505060406123bd87828801612340565b91505092959194509250565b600080602083850312156123e0576123df6120c8565b5b600083013567ffffffffffffffff8111156123fe576123fd6120cd565b5b61240a858286016121c8565b92509250509250929050565b7f4e487b7100000000000000000000000000000000000000000000000000000000600052602160045260246000fd5b600082825260208201905092915050565b7f4f6e6c792061646d696e6973747261746f72732061726520616c6c6f7765642060008201527f746f2065786563757465207468652066756e63696f6e616c6974790000000000602082015250565b60006124b2603b83612445565b91506124bd82612456565b604082019050919050565b600060208201905081810360008301526124e1816124a5565b9050919050565b7f6164647265737320697320616c72656164792072656769737465726564000000600082015250565b600061251e601d83612445565b9150612529826124e8565b602082019050919050565b6000602082019050818103600083015261254d81612511565b9050919050565b6000819050919050565b600061257961257461256f84612130565b612554565b612130565b9050919050565b6125898161255e565b82525050565b612598816120f2565b82525050565b60006060820190506125b36000830186612580565b6125c0602083018561258f565b6125cd604083018461258f565b949350505050565b7f636f77496420616c726561647920726567697374657265640000000000000000600082015250565b600061260b601883612445565b9150612616826125d5565b602082019050919050565b6000602082019050818103600083015261263a816125fe565b9050919050565b7f61646472657373206e6f7420616c6c6f77656420746f2072656769737465722060008201527f636f770000000000000000000000000000000000000000000000000000000000602082015250565b600061269d602383612445565b91506126a882612641565b604082019050919050565b600060208201905081810360008301526126cc81612690565b9050919050565b7f64657669636541646472657373206973206e6f74206173736f6369617465642060008201527f746f206120446576696365000000000000000000000000000000000000000000602082015250565b600061272f602b83612445565b915061273a826126d3565b604082019050919050565b6000602082019050818103600083015261275e81612722565b9050919050565b7f4f6e6c792074686520646576696365206d616e616765722063616e207065726660008201527f6f726d2074686973206f7065726174696f6e0000000000000000000000000000602082015250565b60006127c1603283612445565b91506127cc82612765565b604082019050919050565b600060208201905081810360008301526127f0816127b4565b9050919050565b7f54686520646576696365206973206e6f74206173736f63696174656420746f2060008201527f7468652070726f766964656420636f7749640000000000000000000000000000602082015250565b6000612853603283612445565b915061285e826127f7565b604082019050919050565b6000602082019050818103600083015261288281612846565b9050919050565b600060408201905061289e6000830185612580565b6128ab602083018461258f565b9392505050565b7f5468652061646472657373206973206e6f7420616c6c6f777320746f2065786560008201527f6375746520746869732066756e6374696f6e616c697479000000000000000000602082015250565b600061290e603783612445565b9150612919826128b2565b604082019050919050565b6000602082019050818103600083015261293d81612901565b9050919050565b61294d8161231f565b82525050565b60006040820190506129686000830185612580565b6129756020830184612944565b9392505050565b7f54686520646576696365206973206173736f63696174656420746f20616e6f7460008201527f68657220636f7700000000000000000000000000000000000000000000000000602082015250565b60006129d8602783612445565b91506129e38261297c565b604082019050919050565b60006020820190508181036000830152612a07816129cb565b9050919050565b7f43616e6e6f74206173736f636961746520612064657669636520746f2061207060008201527f656e64696e67207472616e73666572206f66206f776e65727368697000000000602082015250565b6000612a6a603c83612445565b9150612a7582612a0e565b604082019050919050565b60006020820190508181036000830152612a9981612a5d565b9050919050565b7f636f77496420697320616c7265616479206173736f63696174656420746f206160008201527f6e6f746865722064657669636500000000000000000000000000000000000000602082015250565b6000612afc602d83612445565b9150612b0782612aa0565b604082019050919050565b60006020820190508181036000830152612b2b81612aef565b9050919050565b7f4e487b7100000000000000000000000000000000000000000000000000000000600052601160045260246000fd5b6000612b6c82612130565b9150612b7783612130565b9250828203905081811115612b8f57612b8e612b32565b5b92915050565b7f4e487b7100000000000000000000000000000000000000000000000000000000600052603260045260246000fd5b7f4f6e6c79207468652063757272656e74206f776e65722063616e2063616c6c2060008201527f746869732066756e6374696f6e00000000000000000000000000000000000000602082015250565b6000612c20602d83612445565b9150612c2b82612bc4565b604082019050919050565b60006020820190508181036000830152612c4f81612c13565b9050919050565b7f4f6e6c79206163746f72732063616e20626520746865206e6577206f776e6572600082015250565b6000612c8c602083612445565b9150612c9782612c56565b602082019050919050565b60006020820190508181036000830152612cbb81612c7f565b9050919050565b7f4e6577206f776e6572206d75737420626520646966666572656e742066726f6d60008201527f207468652063757272656e74206f776e65720000000000000000000000000000602082015250565b6000612d1e603283612445565b9150612d2982612cc2565b604082019050919050565b60006020820190508181036000830152612d4d81612d11565b9050919050565b7f41207472616e7366657220697320616c72656164792070656e64696e67000000600082015250565b6000612d8a601d83612445565b9150612d9582612d54565b602082019050919050565b60006020820190508181036000830152612db981612d7d565b9050919050565b7f54686520636f7720686173206e6f7420746f206265206173736f63696174656460008201527f20746f20612064657669636520746f207472616e7366657220746865206f776e60208201527f6572736869700000000000000000000000000000000000000000000000000000604082015250565b6000612e42604683612445565b9150612e4d82612dc0565b606082019050919050565b60006020820190508181036000830152612e7181612e35565b9050919050565b60007fffffffffffffffffffffffffffff00000000000000000000000000000000000082169050919050565b612ead81612e78565b82525050565b6000602082019050612ec86000830184612ea4565b92915050565b7f5468657265206973206e6f7420612070656e64696e67206f776e65727368697060008201527f20666f7220636f77496400000000000000000000000000000000000000000000602082015250565b6000612f2a602a83612445565b9150612f3582612ece565b604082019050919050565b60006020820190508181036000830152612f5981612f1d565b9050919050565b7f636f77496420746f6f206c6f6e67000000000000000000000000000000000000600082015250565b6000612f96600e83612445565b9150612fa182612f60565b602082019050919050565b60006020820190508181036000830152612fc581612f89565b9050919050565b600081519050919050565b6000819050602082019050919050565b6000612ff38251612e78565b80915050919050565b600082821b905092915050565b600061301482612fcc565b8261301e84612fd7565b905061302981612fe7565b9250600e821015613069576130647fffffffffffffffffffffffffffff00000000000000000000000000000000000083600e03600802612ffc565b831692505b505091905056fea264697066735822122098ac60c42d9cdef82c3009092a7c5e9f85a8485b6deb2af889e44e07e7971aee64736f6c63430008130033",
  "immutableReferences": {},
  "source": "// SPDX-License-Identifier: GPL-3.0\npragma solidity ^0.8.0 <=0.8.19; // al momento il codice da problemi a partire dalla versione 8.20;\n\n/* \n    ASSUNZIONI:\n    - I timestamp delle operazioni siano forniti dagli invocatori delle funzioni, ci si aspetta quindi che questi valori siano sempre validi e sensati;\n    - Si assume che i cowId siano validi (viene fatto un check solo sulla loro lunghezza, fissa a 14 caratteri);\n    - Nel passaggio di ownership puoi avvenire solo dopo aver dissociato il collare dalla mucca;\n*/\n\ncontract AgritechDemo {\n\n    /* DEFINIZIONE TIPI E STRUCT */\n\n    // Gli identificativi delle mucche sulla Banca Dati Nazionale dell'Anagrafe Zootecnica (BDN) dovrebbero essere sempre di 14 caratteri, 1 byte  un carattere;\n    //type cowid is bytes14;\n\n    // SHA3-256 produce output da 256 bit _> 32 byte\n    //type gpshash is bytes32;\n\n    // Unix Time\n    type timestamp is uint256;\n\n    bytes14 constant EMPTYCOWID = 0x00; // 2 hex = 1 byte\n\n    // Struct dati associazione collare\n    struct DeviceAssociationData {\n        address currentManager;\n        bytes14 currentCow;\n    }\n\n    // Struct dati owneship mucca\n    struct OwnershipData {\n        timestamp startTime;\n        address owner;\n    }\n\n    // Struct dati di transfer owneship mucca\n    struct PendingOwnershipData {\n        timestamp transferTime;\n        address previousOwner;\n        address newOwner;\n    }\n\n    // Ruoli\n    enum Roles {\n        NoPriviledge, // Gestione ruolo con indice 0 su mapping\n        Administrator, // Possono assegnare ruoli\n        Actor,\n        Device\n    }\n\n    /* EVENTS */\n\n    // Evento generato all'associazione di una mucca ad un collare. NOTA: l'aggiunta di una mucca SENZA l'associazione ad un collare non genera evento\n    event CowToDeviceAssociated(timestamp registrationTime, bytes14 indexed cowId, address deviceAddress);\n    event CowToDeviceDissociated(timestamp registrationTime, bytes14 indexed cowId, address deviceAddress);\n\n    // Evento generato alla generazione di hash per una collezione di informazioni -  EVENTI DA SCANDIRE PER L'INTEGRITY CHECK\n    event IntegritySegment(timestamp lastTimestamp, bytes14 indexed cowId, bytes32 hash);\n\n    // Evento generato alla registrazione di un device da parte dell'amministratore\n    event DeviceRegistered(timestamp registerTime, address deviceAddress, address deviceManager); \n\n    // Eventi generati durante il trasferimento di ownership\n    event OwnershipTransferInitiated(address indexed currentOwner, address indexed proposedOwner, bytes14 cowId);\n    event OwnershipTransferCompleted(address indexed previousOwner, address indexed newOwner, bytes14 cowId);\n    event OwnershipTransferCanceled(address indexed previousOwner, address indexed newOwner, bytes14 cowId);\n\n    /* STATE VARIABLES */\n\n    // Mappa address : ruolo, ruoli associati agli accounts. NOTA: quando la chiave non  presente da come valore di default 0, quindi ruolo NoPriviledge\n    mapping(address => Roles) internal addrToRole;\n    // Mappa idMucca : listaOwnership, sequenza di ownerships delle singole mucche\n    mapping(bytes14 => OwnershipData[]) internal cowOwnerships; \n    // Mappa address : IdActor-IdMucca, tiene traccia dell'associazione del collare ad eventuale gestore e mucca\n    mapping(address => DeviceAssociationData) internal deviceAssociations; \n    // Mappa idMucca : pendingOwner, tiene traccia dei cambi di ownership in stato pending\n    mapping(bytes14 => PendingOwnershipData) internal pendingOwnerships; \n    // Mappa idMucca : bool, tiene traccia del fatto che una mucca abbia associato un device (unicit di associazione + mucca senza collare prima del transfer)\n    mapping(bytes14 => bool) internal hasCowAssociatedDevice;\n\n    constructor() {\n        addrToRole[msg.sender] = Roles.Administrator; // chi distribuisce il contratto diviene Admin\n        //emit ContractDeployed(msg.sender);\n    }\n\n    modifier onlyAdministrators{\n        require(addrToRole[msg.sender] == Roles.Administrator, \"Only administrators are allowed to execute the funcionality\");\n        _;\n    }\n    \n    // NOTA: Roles are currently permanent\n    modifier notPreviouslyRegistered (address _address) {\n        require(addrToRole[_address] == Roles.NoPriviledge, \"address is already registered\"); \n        _;\n    }\n\n    function registerNewAdmin (address _adminAddress) external onlyAdministrators notPreviouslyRegistered(_adminAddress) {\n        addrToRole[_adminAddress] = Roles.Administrator;\n    } \n\n\n    function registerNewActor (address _actorAddress) external onlyAdministrators notPreviouslyRegistered(_actorAddress) {\n        addrToRole[_actorAddress] = Roles.Actor;\n    }\n\n    function registerNewDevice (address _deviceAddress, address _managerAddress, timestamp _registerTime) external onlyAdministrators notPreviouslyRegistered(_deviceAddress) {\n        addrToRole[_deviceAddress] = Roles.Device;\n        deviceAssociations[_deviceAddress] = DeviceAssociationData(_managerAddress, EMPTYCOWID);\n        emit DeviceRegistered(_registerTime, _deviceAddress, _managerAddress);\n    }\n\n    // funzione interna, converte un input in formato stringa in bytes14\n    function checkAndConvertCowId (string calldata _cowId) private pure returns (bytes14) { \n        bytes memory cowIdBytes = bytes(_cowId);\n        require(cowIdBytes.length <= 14, \"cowId too long\"); // minimal check invalid cowId\n        return bytes14(cowIdBytes);\n    }\n\n    function isCowRegistered(bytes14 cowIdBytes14) private view returns (bool) {\n        if (cowOwnerships[cowIdBytes14].length > 0)\n            return true;\n        else\n            return false;\n    }\n\n    // QUESTA FUNZIONE SEMBRA AVERE PROBLEMI DI GAS\n    function addCow (string calldata _cowId, timestamp _registrationTime) public {\n        // VALIDITY CHECKS\n        bytes14 cowIdBytes14 = checkAndConvertCowId(_cowId);\n        require(!isCowRegistered(cowIdBytes14), \"cowId already registered\");\n        require(addrToRole[msg.sender] == Roles.Actor, \"address not allowed to register cow\"); \n        \n        // SAVE OWNERSHIP\n        OwnershipData memory newOwnership = OwnershipData({\n            owner: msg.sender,\n            startTime: _registrationTime\n        });\n        cowOwnerships[cowIdBytes14].push(newOwnership);\n    }\n\n    function associateDeviceToCow(string calldata _cowId, address _deviceAddress, timestamp _startTime) public {\n        // VALIDITY CHECKS\n        require(addrToRole[_deviceAddress] == Roles.Device, \"deviceAddress is not associated to a Device\"); \n        DeviceAssociationData memory deviceAssociation = deviceAssociations[_deviceAddress];\n        require(deviceAssociation.currentManager == msg.sender, \"Only the device manager can perform this operation\");\n        require(deviceAssociation.currentCow == EMPTYCOWID, \"The device is associated to another cow\");\n        bytes14 cowIdBytes14 = checkAndConvertCowId(_cowId);\n        require(pendingOwnerships[cowIdBytes14].newOwner == address(0), \"Cannot associate a device to a pending transfer of ownership\");\n        require(!hasCowAssociatedDevice[cowIdBytes14], \"cowId is already associated to another device\");\n\n        // add cow if not registered yet\n        if (!isCowRegistered(cowIdBytes14))\n            addCow(_cowId, _startTime); \n\n        // ASSOCIATE DEVICE TO COW\n        deviceAssociations[_deviceAddress].currentCow = cowIdBytes14;\n        hasCowAssociatedDevice[cowIdBytes14] = true;\n        emit CowToDeviceAssociated(_startTime , cowIdBytes14, _deviceAddress);\n    }\n\n    function dissociateDeviceToCow(string calldata _cowId, address _deviceAddress, timestamp _endTime) public {\n        // VALIDITY CHECKS\n        require(addrToRole[_deviceAddress] == Roles.Device, \"deviceAddress is not associated to a Device\"); \n        DeviceAssociationData memory deviceAssociation = deviceAssociations[_deviceAddress];\n        require(deviceAssociation.currentManager == msg.sender, \"Only the device manager can perform this operation\");\n        bytes14 cowIdBytes14 = checkAndConvertCowId(_cowId);\n        require(deviceAssociation.currentCow == cowIdBytes14, \"The device is not associated to the provided cowId\");\n\n        // DISSOCIATE DEVICE TO COW\n        deviceAssociations[_deviceAddress].currentCow = EMPTYCOWID;\n        delete hasCowAssociatedDevice[cowIdBytes14];\n        emit CowToDeviceDissociated(_endTime, cowIdBytes14, _deviceAddress);\n    }\n\n    function transferOwnership(string calldata _cowId, address _newOwner, timestamp _transferTime) public {\n        // VALIDITY CHECKS\n        bytes14 cowIdBytes14 = checkAndConvertCowId(_cowId);\n        OwnershipData[] memory currentCowOwnerships = cowOwnerships[cowIdBytes14];\n        require(currentCowOwnerships[currentCowOwnerships.length-1].owner == msg.sender, \"Only the current owner can call this function\");\n        require(addrToRole[_newOwner] == Roles.Actor, \"Only actors can be the new owner\");\n        require(_newOwner != msg.sender, \"New owner must be different from the current owner\");\n        require(pendingOwnerships[cowIdBytes14].newOwner == address(0), \"A transfer is already pending\");\n        require(!hasCowAssociatedDevice[cowIdBytes14], \"The cow has not to be associated to a device to transfer the ownership\");\n\n        // PENDING TRANSFER\n        PendingOwnershipData memory newPOD = PendingOwnershipData({\n            newOwner: _newOwner,\n            previousOwner: msg.sender,\n            transferTime: _transferTime\n        });\n        pendingOwnerships[cowIdBytes14] = newPOD;        \n        emit OwnershipTransferInitiated(msg.sender, _newOwner, cowIdBytes14);\n    }\n\n    function acceptOwnership(string calldata _cowId) public  {\n        // VALIDITY CHECKS\n        bytes14 cowIdBytes14 = checkAndConvertCowId(_cowId);\n        PendingOwnershipData memory POD = pendingOwnerships[cowIdBytes14];\n        require(POD.newOwner == msg.sender, \"There is not a pending ownership for cowId\");\n\n        // COMPLETE TRANSFER\n        OwnershipData memory newOwnership = OwnershipData({\n            owner: msg.sender,\n            startTime: POD.transferTime\n        });\n        cowOwnerships[cowIdBytes14].push(newOwnership);\n        delete pendingOwnerships[cowIdBytes14];\n        emit OwnershipTransferCompleted(POD.previousOwner, msg.sender, cowIdBytes14);\n    }\n\n    function cancelTransfer(string calldata _cowId) public {\n        // VALIDITY CHECKS\n        bytes14 cowIdBytes14 = checkAndConvertCowId(_cowId);\n        PendingOwnershipData memory POD = pendingOwnerships[cowIdBytes14];\n        require(POD.newOwner == msg.sender, \"There is not a pending ownership for cowId\");\n\n        // CANCEL TRANSFER\n        emit OwnershipTransferCanceled(POD.previousOwner, msg.sender, cowIdBytes14);\n        delete pendingOwnerships[cowIdBytes14];\n\n    }\n\n    function storeIntegritySegment(string calldata _cowId, timestamp _updateTime, bytes32 gpshash) public {\n        // VALIDITY CHECKS\n        bytes14 cowIdBytes14 = checkAndConvertCowId(_cowId);\n        require(deviceAssociations[msg.sender].currentCow == cowIdBytes14, \"The address is not allows to execute this functionality\");\n\n        // STORE INTEGRITY SEGMENT\n        emit IntegritySegment(_updateTime, cowIdBytes14, gpshash);\n    }\n\n}",
  "sourcePath": "/home/giovanni/agritechdemodlt/contracts/AgritechDemo.sol",
  "compiler": {
    "name": "solc",
    "version": "0.8.19+commit.7dd6d404.Emscripten.clang"
  },
  "schemaVersion": "3.4.16",
  "updatedAt": "2024-08-21T13:58:52.439Z",
  "networkType": "ethereum",
  "devdoc": {
    "kind": "dev",
    "methods": {},
    "version": 1
  },
  "userdoc": {
    "kind": "user",
    "methods": {},
    "version": 1
  }
}